:100000000C94B9000C94E1000C94E1000C94E10014
:100010000C94E1000C94E1000C94E1000C94E100DC
:100020000C94E1000C94E1000C94E1000C94E100CC
:100030000C94E1000C94E1000C94E1000C94E100BC
:100040000C942C030C94E1000C9459020C94330290
:100050000C94E1000C94E1000C94E1000C94E1009C
:100060000C94E1000C94E10091069A068E06E106DC
:10007000E106E1069706E106E106E1069D06E106D6
:10008000E106E106E106E106E1069406E106E10685
:10009000E1068B06A0060607E8080607E106E1066A
:1000A000E106B107E106E106E106F508E106E10631
:1000B000E106E106E106E106A507E106E106E10643
:1000C000ED062B09C90ACC0AD20ADF0AE30AEE0AB6
:1000D000FE0A020B0E0B0B0B4E414E494E49545972
:1000E000494E46CDCCCC3D0AD7233C17B7D1387703
:1000F000CC2B329595E6241FB14F0A000020410019
:1001000000C84200401C4620BCBE4CCA1B0E5AAE62
:10011000C59D7400000000250028002B0000000091
:100120000023002600290000000008000201000052
:10013000030407000000000000000000000000248D
:100140000027002A00010204081020408001020458
:10015000081020010204081020040404040404040C
:1001600004020202020202030303030303009815C0
:10017000380D11241FBECFEFD8E0DEBFCDBF27E082
:10018000A4E7B1E001C01D92A232B207E1F711E08D
:10019000A0E0B1E0EEE8FEE302C005900D92A437C6
:1001A000B107D9F710E0C8EBD0E004C02197FE01F9
:1001B0000E94E11DC73BD107C9F70E94410D0C9475
:1001C0003A1F0C940000CF92DF92EF92FF920F93B0
:1001D0001F93CF93DF936C017A018B01C0E0D0E0D5
:1001E000CE15DF0589F0D8016D918D01D601ED9115
:1001F000FC910190F081E02DC6010995892B11F445
:100200007E0102C02196ECCFC701DF91CF911F91F3
:100210000F91FF90EF90DF90CF900895089580E0C8
:1002200090E00895FC01538D448D252F30E0842FFC
:1002300090E0821B930B541710F0CF96089501970E
:100240000895FC01918D828D981761F0828DDF01F8
:10025000A80FB11D5D968C91928D9F5F9F73928FB9
:1002600090E008958FEF9FEF0895FC01918D828DAE
:10027000981731F0828DE80FF11D858D90E008957B
:100280008FEF9FEF0895FC01918D228D892F90E0D3
:10029000805C9F4F821B91098F73992708958EE789
:1002A00091E00E94430121E0892B09F420E0822F94
:1002B0000895FC01848DDF01A80FB11DA35ABF4F23
:1002C0002C91848D90E001968F739927848FA68955
:1002D000B7892C93A089B1898C9180648C93938D7C
:1002E000848D981306C00288F389E02D80818F7D6C
:1002F00080830895EF92FF920F931F93CF93DF9324
:10030000EC0181E0888F9B8D8C8D981305C0E88966
:10031000F989808185FD24C0F62E0B8D10E00F5FDA
:100320001F4F0F731127E02E8C8DE8120CC00FB6F3
:1003300007FCFACFE889F989808185FFF5CFCE01E6
:100340000E945901F1CF8B8DFE01E80FF11DE35A98
:10035000FF4FF0820B8FEA89FB898081806207C0A2
:10036000EE89FF896083E889F989808180648083D0
:1003700081E090E0DF91CF911F910F91FF90EF907E
:100380000895CF93DF93EC01888D8823C9F0EA8923
:10039000FB89808185FD05C0A889B9898C9186FD7E
:1003A0000FC00FB607FCF5CF808185FFF2CFA8897B
:1003B000B9898C9185FFEDCFCE010E945901E7CF1D
:1003C000DF91CF910895833081F028F4813099F046
:1003D0008230A1F008958730A9F08830B9F08430D8
:1003E000D1F4809180008F7D03C0809180008F7751
:1003F00080938000089584B58F7702C084B58F7D87
:1004000084BD08958091B0008F7703C08091B000C3
:100410008F7D8093B00008953FB7F8948091790163
:1004200090917A01A0917B01B0917C0126B5A89BA7
:1004300005C02F3F19F00196A11DB11D3FBFBA2F76
:10044000A92F982F8827820F911DA11DB11DBC01D6
:10045000CD0142E0660F771F881F991F4A95D1F79B
:1004600008950E94141F1F920F920FB60F9211242D
:100470002F933F934F935F936F937F938F939F93AC
:10048000AF93BF93EF93FF938EE791E00E945901E2
:10049000FF91EF91BF91AF919F918F917F916F915C
:1004A0005F914F913F912F910F900FBE0F901F9032
:1004B00018951F920F920FB60F9211242F938F93BE
:1004C0009F93EF93FF93E0918E01F0918F018081D4
:1004D000E0919401F091950182FD12C0908180918C
:1004E00097018F5F8F7320919801821751F0E091EF
:1004F0009701F0E0E258FE4F958F8093970101C07D
:100500008081FF91EF919F918F912F910F900FBE5E
:100510000F901F901895CF93DF93282F30E0F901AB
:10052000E95DFE4F8491F901EB5BFE4FD491F90137
:10053000E75AFE4FC491CC2391F081110E94E30150
:10054000EC2FF0E0EE0FFF1FE35EFE4FA591B4919C
:10055000EC91ED2381E090E021F480E002C080E0A6
:1005600090E0DF91CF9108951F93CF93DF93282FD1
:1005700030E0F901E95DFE4F8491F901EB5BFE4F3C
:10058000D491F901E75AFE4FC491CC23C9F0162F3C
:1005900081110E94E301EC2FF0E0EE0FFF1FED5EF2
:1005A000FE4FA591B4918FB7F894111105C09C919D
:1005B000ED2FE095E92302C0EC91ED2BEC938FBF7A
:1005C000DF91CF911F910895CF93DF9390E0FC01CD
:1005D000EB5BFE4F2491FC01E75AFE4F8491882388
:1005E00061F190E0880F991FFC01E55CFE4FC59119
:1005F000D491FC01ED5EFE4FA591B491611109C04B
:100600009FB7F8948881209582238883EC912E23CC
:100610000BC0623061F49FB7F8943881822F8095C7
:1006200083238883EC912E2B2C939FBF06C08FB71A
:10063000F894E8812E2B28838FBFDF91CF91089506
:100640002FB7F894609175017091760180917701D0
:10065000909178012FBF08951F920F920FB60F92BD
:1006600011242F933F938F939F93AF93BF938091C8
:10067000750190917601A0917701B0917801309148
:10068000740123E0230F2D3720F40196A11DB11D25
:1006900005C026E8230F0296A11DB11D2093740109
:1006A0008093750190937601A0937701B0937801C0
:1006B0008091790190917A01A0917B01B0917C01A8
:1006C0000196A11DB11D8093790190937A01A093A9
:1006D0007B01B0937C01BF91AF919F918F913F912E
:1006E0002F910F900FBE0F901F901895CF93DF930F
:1006F000EC01862F94E59883198269874A872B87B6
:1007000091E09A839C839D8361E00E94B40261E042
:100710008985DF91CF910C94E40208958EBD00008D
:100720000DB407FEFDCF8EB50895CF92DF92EF9204
:10073000FF920F931F93CF93DF93EC01862F9A8143
:10074000992351F0DF91CF911F910F91FF90EF907E
:10075000DF90CF900C948E03062F87E0E82EF12CCB
:1007600010E0CC24C394D12C110F60E08E810E9444
:10077000B402B6010E2C01C0660F0A94EAF760239A
:1007800088850E94B40261E08E810E94B4028F814C
:100790000E948B02892B09F0116081E0E81AF108B0
:1007A00018F7812FDF91CF911F910F91FF90EF905C
:1007B000DF90CF9008958CBD9DBD08950F931F933A
:1007C000CF93DF93EC01042F162F10688A818823C2
:1007D00029F0888199810E94DB0304C061E08E8149
:1007E0000E94B40283E090E00197F1F760E0898510
:1007F0000E94B402612FCE010E949503602FCE01AA
:100800000E94950361E08985DF91CF911F910F913F
:100810000C94B4028F929F92AF92BF92FF920F936B
:100820001F93CF93DF93EC01CB01BA01480159012B
:1008300020E030E040E851E40E94821B0E94731DDA
:10084000162FF72E20E030E040E851E4C501B40156
:100850000E94821B0E94731D062F472F65E0CE0168
:100860000E94DE03402F66E0CE010E94DE034F2D82
:1008700067E0CE010E94DE03412F68E0CE01DF91E8
:10088000CF911F910F91FF90BF90AF909F908F904D
:100890000C94DE03DF92EF92FF920F931F93CF939E
:1008A000DF93EC01F42ED52EE22E162F1F778A81CE
:1008B000882329F0888199810E94DB0304C061E0CC
:1008C0008E810E94B40283E090E00197F1F760E02E
:1008D00089850E94B402612FCE010E9495030F2DDD
:1008E0001D2DFE0CF01641F06FEFCE010E94950316
:1008F000F80181938F01F6CF61E08985DF91CF9177
:100900001F910F91FF90EF90DF900C94B402CF9362
:10091000DF93EC011D86AC01435F5F4F21E00E9435
:100920004A048D85DF91CF910895FF920F931F9315
:10093000CF93DF931F92CDB7DEB78C01F62E61E027
:1009400049830E94870480789F2D9F70892B49815D
:10095000482BF801448761E0C8010F90DF91CF91E7
:100960001F910F91FF900C94DE03CF93DF93EC0166
:1009700060E00E948704482F4F734C8760E0CE01EF
:100980000E94DE031B82DF91CF910895CF93DF9306
:10099000EC0160E00E9487048F7B482F40684C8701
:1009A00060E0CE010E94DE0381E08B83DF91CF9176
:1009B00008958F929F92AF92BF92CF92DF92EF9263
:1009C000FF92CF93DF93EC018B81811136C040E021
:1009D00069E0CE010E94DE0360E0CE010E94870440
:1009E000482F40644C8760E0CE010E94DE030E94E5
:1009F0000C024B015C015AEFC52ED12CE12CF12CDD
:100A00000E940C02DC01CB0188199909AA09BB09D3
:100A1000883E9340A105B10558F021E0C21AD108E3
:100A2000E108F10888EE880E83E0981EA11CB11C35
:100A3000C114D104E104F10419F7AE01405F5F4F26
:100A400023E06CE0CE010E944A046889862F90E082
:100A5000A0E0B0E0BA2FA92F982F88272989822BF0
:100A6000BA2FA92F982F88272A89822B8D8B9E8BAE
:100A7000AF8BB88FA7FDBF6FBC01CD0125E0959569
:100A80008795779567952A95D1F70E94231B20E0DB
:100A900030E040E05CE30E94821BDF91CF91FF9049
:100AA000EF90DF90CF90BF90AF909F908F90089580
:100AB0000F931F93CF93DF931F92CDB7DEB78C01B7
:100AC000FC018785908969830E94DB036981862FF9
:100AD0000E948E0361E0F80186890E94B40260E002
:100AE000F80186890F90DF91CF911F910F910C949F
:100AF000B402FC0163896D7F638B0C945805FC0183
:100B000063896F77638B0C945805CF93DF93EC0167
:100B1000662329F00E947905CE010E947F05FE011F
:100B2000ED58FD4F108260E08C890E94B40260E0B5
:100B30008D890E94B4026B896B7F6B8BCE01DF9134
:100B4000CF910C9458050F931F93CF93DF93EC0133
:100B50008C010D581D4FF8018081882321F061E040
:100B6000CE010E948505FE01E559FD4F80819181EE
:100B70000E94B504FE01E359FD4F808191810E94DE
:100B8000B504FE01EF58FD4F1082F80110828E016E
:100B90000E581D4FF8018081882341F0C159DD4F67
:100BA000888199810E94B504F8011082DF91CF916C
:100BB0001F910F9108952F923F924F925F926F92E3
:100BC0007F928F929F92AF92BF92CF92DF92EF92DD
:100BD000FF920F931F93CF93DF93CDB7DEB760974C
:100BE0000FB6F894DEBF0FBECDBF10E804E18EE76C
:100BF00091E00E944301892B09F43BC38EE791E009
:100C00000E9435018E35910509F0C4C0AAE6B5E011
:100C1000E12F1D92EA95E9F76AE6A62E65E0B62E69
:100C20000E9420036093860170938701809388015E
:100C300090938901E0917E01F0917F010284F38518
:100C4000E02D8EE791E0099597FD0CC08A30910563
:100C500039F560E470E08AE695E00E94191F00977C
:100C600049F596C00E942003C0908601D09087016C
:100C7000E0908801F0908901DC01CB018C199D097D
:100C8000AE09BF09C0908201D0908301E090840139
:100C9000F09085018C159D05AE05BF0558F2D9CFA2
:100CA000D5018D935D01B9EEAB16B5E0BB0609F039
:100CB000B7CFCFCFAC014A565540FC01818181119D
:100CC00067C0AAE9B6E0E12F1D92EA95E9F755273A
:100CD000415051096BE675E08AE996E00E942B1FAE
:100CE00060E675E08AE996E00E945519009709F4DC
:100CF0004DC0DC01EC914E2FEE0F550B660B770BC0
:100D0000FA01E256F109E731F10508F05AC0EC5C4E
:100D1000FF4F0C94E11D2091610514C020916205E4
:100D200011C0209163050EC0209164050BC0209175
:100D3000650508C02091660505C02091670502C0C1
:100D400020916805D12CA22EB12CD394ED2CF12C3E
:100D5000F701EE0FFF1FE857F94F40815181DA018B
:100D6000202F1D922A95E9F7BC01808191810E9474
:100D7000241F60E675E080E090E00E945519AE14F3
:100D8000BF041CF1009709F78CE61CC08EE61AC060
:100D900085E618C08EE791E00E94210183E712C02A
:100DA000E0918A06F0918B06D0808D2D0D2C000CE1
:100DB000990BAA0BBB0BFC01E256F109E731F105D7
:100DC00040F083E60E94FB0C12CF892B49F38DE69D
:100DD000F9CFE55BFF4F0C94E11DF0901B028EE50F
:100DE0000E94100B87E70E94100B8CE70E94100BEB
:100DF0006F2D70E080E090E04AE00E94510B80E4AB
:100E00000E94100B8AE00E94100BF1CE8091900698
:100E1000909191060E941019E0918E06F0918F0634
:100E2000E081E254E23130F4F0E0EB5EFE4F4080CE
:100E3000512C03C047E0442E512C02978F3091056E
:100E400030F4FC01EA5FFE4FE080F12C02C0E12C9F
:100E5000F12C82E6D81247C026E8C22E24E0D22E1A
:100E60003FE9832E34E0932E772473945601A70133
:100E7000B201D6018D919D916D010E949504F501FD
:100E8000808191810E94C604F4013497BB24B394FD
:100E9000708232961082D4011D924D01BAE8CB16B1
:100EA000B4E0DB0619F7B0928C0410929A04A70103
:100EB000B20180918A0490918B040E9495048091E4
:100EC0008A0490918B040E94C604B0922905109266
:100ED0002A05B0928D0480918C0690918D060E9417
:100EE000101962E6B5C186E8C82E84E0D82E9FE9C5
:100EF000892E94E0992E772473945601A701B201AC
:100F0000F601819191916F010E949504D5018D9117
:100F10009C910E94C604F40134977082329610822C
:100F2000F40111924F01FAE8CF16F4E0DF0629F739
:100F300081E080938C0410929A0480918C069091A9
:100F40008D060E94101964E683C18BE192E00E9435
:100F5000A30580918C0690918D060E94101963E77D
:100F600077C180919606909197060E940C1969832B
:100F70007A838B839C8380919406909195060E943E
:100F80000C196D837E838F83988780919206909150
:100F900093060E942E199B01AC01A8EEB3E00E94BB
:100FA000431C6B017C0180919006909191060E94F8
:100FB0000C192B013C0180918E0690918F060E94A6
:100FC0000C1969877A878B879C87C114D104E10447
:100FD000F10409F4F0C00E9420034B015C0160930E
:100FE000EC047093ED048093EE049093EF04DC0125
:100FF000CB018C0D9D1DAE1DBF1D8093DD04909314
:10100000DE04A093DF04B093E0044BE152E01A0148
:1010100020E030E089859A85AB85BC858093B50456
:101020009093B604A093B704B093B804F101E657C7
:10103000FD4F80819181A281B381749680839183D9
:10104000A283B383109204058D819E81AF81B88500
:101050008093190590931A05A0931B05B0931C0566
:1010600089819A81AB81BC8180932105909322056F
:10107000A0932305B09324052D873E874F87588B77
:101080000E9458094F855889FA01E75FFD4F108289
:101090001182128213827A970190F081E02D808173
:1010A0009181A281B381FA01EB5FFD4F808391832F
:1010B000A283B3834F87588B0E9420034F855889A2
:1010C000FA01EB50FE4F80829182A282B3822D857D
:1010D0003E85C901855E9D4FFC01EA57FD4F108298
:1010E000E75BFF4F108294E0290E311C445B5F4F99
:1010F0002130310519F021E030E08CCFE09142053C
:101100008090430590904405A0904505B090460519
:10111000AE2FB0E0A50194010E94431CC616D7066D
:10112000E806F90618F0E0935B0508C0C701B601B0
:10113000A50194010E94BF1D20935B056091E1040D
:101140007091E2048091E3049091E4040E94211BD9
:101150009B01AC01C301B2010E94821B20E030E67A
:101160004AE657E40E94011D6093C1047093C204D3
:101170008093C3049093C40460912E0264606093D2
:101180002E028BE192E00E94580510928F048BE1B1
:1011900092E00E9479058BE192E00E947F05109217
:1011A000E9041092570581E0809358051092590583
:1011B00080938E0405C061E08BE192E00E9485057A
:1011C00080918C0690918D060E94101968E640C0AF
:1011D00061E08BE192E00E94850580918C06909100
:1011E0008D060E94101963E633C080918E04811130
:1011F00028C0BB24B394B0928F040E9420036B01DB
:101200007C01E0912F0520913805309139054091FE
:101210003A0550913B05AE2FB0E00E94431CDC0123
:10122000CB018C0D9D1DAE1DBF1D80933E0590937F
:101230003F05A0934005B0934105E0933D05B09272
:101240003C0580918C0690918D060E9410196CE6E9
:101250000E94100DCCCC80918C04811105C080912E
:101260008D04882309F4C3CC8BE192E00E94A3058E
:10127000BECC60960FB6F894DEBF0FBECDBFDF9137
:10128000CF911F910F91FF90EF90DF90CF90BF9083
:10129000AF909F908F907F906F905F904F903F9016
:1012A0002F9008950E944F0181110C94DB05089541
:1012B0002F923F924F925F926F927F928F929F9266
:1012C000AF92BF92CF92DF92EF92FF920F931F9354
:1012D000CF93DF93CDB7DEB76F970FB6F894DEBF2D
:1012E0000FBECDBF4090B5045090B6046090B704D7
:1012F0007090B8048091090590910A05A0910B05A2
:10130000B0910C058A879B87AC87BD8790910405B7
:101310009983A0910505AE83B0910605BF83E09146
:101320000705E887F0910805F987209119052A8BB0
:1013300080911A058B8B90911B059C8BA0911C05AD
:10134000AD8B2091110530911205409113055091FC
:101350001405C301B2010E94941C6E877F87888B9D
:10136000998BB0910D05BE8BE0910E05EF8BF0913E
:101370000F05F88F20911005298F809121058A8F04
:10138000909122059B8FA0912305AC8FB0912405ED
:10139000BD8FEEEEF3E0FF8FEE8F85EA94E09B8346
:1013A0008A839981911119C02A853B854C855D8579
:1013B000C301B2010E94941C9B01AC01AA81BB81B4
:1013C0006D917D918D919C910E94A91D87FF0CC00C
:1013D000EA88FB880C891D890DC0EE80FF80088596
:1013E0001985B1E0B98306C0EE80FF8008851985B4
:1013F000E1E0E983AA81BB816D917D918D919D9101
:10140000BB83AA832E853F85488959890E94A91DDF
:1014100087FD07C0BE89BC83EF89ED83288C398C9A
:1014200006C0FA8DFC832B8D2D832C8C3D8C20E007
:1014300030E04AE754E46C817D81C1010E94011DC6
:101440004B015C01AE8DBF8D5A96CD90DC905B97C1
:1014500020E030E0A901B701C8010E941C1B87FDF4
:1014600050C020E030E0A901C501B4010E941C1B5E
:1014700087FD47C0EE8DFF8DE55BFF4F81E0CA948D
:10148000CD2809F080E08083C701D801EE8DFF8D63
:1014900080839183A283B38384829582A682B7825C
:1014A0001086118612861386D80184879587A687B1
:1014B000B787808A918AA28AB38A148A158A168A83
:1014C000178A808D918D0197E1F49701A80160E062
:1014D00070E0CB010E94941CAE8DBF8D1C966D9365
:1014E0007D938D939C931F97A501940160E070E01C
:1014F000CB010E94941CEE8DFF8D608B718B828BD3
:10150000938B8E8D9F8D845B9F4F9F8F8E8F865880
:10151000944009F046CFB981B0930405C701D801C2
:101520008093150590931605A0931705B0931805A1
:101530008C819D81D10180931D0590931E05A09300
:101540001F05B09320056F960FB6F894DEBF0FBE4F
:10155000CDBFDF91CF911F910F91FF90EF90DF9062
:10156000CF90BF90AF909F908F907F906F905F9043
:101570004F903F902F900895DC01462F50E04A3065
:10158000510528F4FA01EE59FF4F0C94E11D80E05B
:10159000089516968C9134C012969C9112971196CC
:1015A0008C9137C011969C9111978C91892B16962E
:1015B0009C911697892B14969C9114971BC0119699
:1015C0009C9111970EC016969C91169715968C912A
:1015D0001597892B11969C91119718C015969C917F
:1015E00015978C91892B16969C911697892B12969C
:1015F0009C911297892B13969C910BC011968C91FC
:101600008095089511969C9111978C91892B129633
:101610009C91892B089514968C91F2CF8FEF0895A9
:10162000E0917E01F0917F010190F081E02D682F23
:101630008EE791E00994CF93DF93EC018C818823AE
:1016400021F060E08A850E94E4028D81882321F0E8
:1016500060E08B850E94E40240E062E0CE010E94DF
:10166000DE0340E150E067E070E0CE010E949504A7
:1016700040E160E0CE01DF91CF910C94DE03009752
:1016800069F0FC0101900020E9F73197AF01481B98
:10169000590BBC018EE791E00C94E30080E090E0F0
:1016A00008958F929F92AF92BF920F931F93CF9303
:1016B000DF93CDB7DEB7A1970FB6F894DEBF0FBEAC
:1016C000CDBF19A2423008F44AE08E010F5D1F4FD2
:1016D000842E912CA12CB12CA50194010E94BF1D38
:1016E000E62FB901CA0101501109EA3014F4E05D96
:1016F00001C0E95CD801EC93232B242B252B61F747
:10170000C8010E943F0BA1960FB6F894DEBF0FBE32
:10171000CDBFDF91CF911F910F91BF90AF909F9060
:101720008F900895CF93DF93D82FC62F8EE50E9418
:10173000100B85E60E94100B8CE70E94100B6D2F9A
:1017400070E080E090E04AE00E94510B8CE70E943C
:10175000100B6C2F70E080E090E04AE00E94510B8B
:1017600080E40E94100B8AE0DF91CF910C94100B63
:101770000F931F93CF93DF931F92CDB7DEB7062F42
:101780006FE049830E948704182F4981002341F0AC
:10179000442341F0413011F402E005C004E003C0ED
:1017A00003E001C001E0112371F117FF04C060E004
:1017B000802F0E94920B16FF04C061E0802F0E94D0
:1017C000920B15FF04C062E0802F0E94920B14FF61
:1017D00004C063E0802F0E94920B13FF04C064E0FA
:1017E000802F0E94920B12FF04C065E0802F0E94A0
:1017F000920B11FF04C066E0802F0E94920B10FF35
:101800000BC067E001C068E0802F0F90DF91CF919F
:101810001F910F910C94920B0F90DF91CF911F911C
:101820000F9108954F925F926F927F928F929F9245
:10183000AF92BF92CF92DF92EF92FF926B017C0149
:10184000B42E9B01AC010E94AE1D882319F087E6DF
:1018500091E027C026013701E89477F82FEF3FEF9A
:101860004FE75FE7C301B2010E94AE1D81110DC0B9
:101870002FEF3FEF4FE75FE7C301B2010E941C1B50
:1018800018161CF48BE691E00CC02FEF3FEF4FE7EA
:101890005FE4C701B6010E94A91D181684F48FE603
:1018A00091E0FF90EF90DF90CF90BF90AF909F902E
:1018B0008F907F906F905F904F900C943F0B2FEF25
:1018C0003FEF4FE75FECC701B6010E941C1B87FD8D
:1018D000E6CF20E030E0A901C701B6010E941C1B41
:1018E00087FF09C08DE20E94100B4C01F7FAF094BB
:1018F000F7F8F09402C0812C912CA12C60E070E0EC
:1019000080E09FE3AB1441F020E030E040E251E49E
:101910000E94011DA394F6CF9B01AC01C701B60143
:101920000E94951C2B013C010E947A1D6B017C01D9
:101930000E94211B9B01AC01C301B2010E94941CB7
:101940002B013C014AE0C701B6010E94510B7C010A
:10195000E80CF91CBB2029F08EE20E94100BE80E67
:10196000F91EDB2CDD2021F120E030E040E251E4E3
:10197000C301B2010E94821B2B013C010E947A1D0F
:101980004B01A12CB12C4AE0C501B4010E94510BBE
:10199000E80EF91EC501B4010E94211B9B01AC0198
:1019A000C301B2010E94941C2B013C01DA94DACFEE
:1019B000C701FF90EF90DF90CF90BF90AF909F90C6
:1019C0008F907F906F905F904F900895CF93DF93AB
:1019D000EC0160E00E9487048C87482F4F7C60E018
:1019E000CE010E94DE034C85406160E0CE01DF91B4
:1019F000CF910C94DE03CF93C82F8EE50E94100B7D
:101A000088E70E94100B8CE70E94100B8C2F0E941D
:101A1000100B80E40E94100B8AE0CF910C94100B05
:101A2000CF93DF93C82FD62F8EE50E94100B82E74D
:101A30000E94100B8CE70E94100B6C2F70E080E06E
:101A400090E04AE00E94510B8CE70E94100B8D2F12
:101A50000E94100B8CE70E94100B89E70E94100B6C
:101A600080E40E94100B8AE0DF91CF910C94100B60
:101A700061E08BE192E00E9485058BE192E00C949D
:101A8000A305CF93DF93CDB7DEB7A4970FB6F89435
:101A9000DEBF0FBECDBF789484B5826084BD84B5AF
:101AA000816084BD85B5826085BD85B5816085BD59
:101AB00080916E00816080936E0010928100809111
:101AC0008100826080938100809181008160809399
:101AD0008100809180008160809380008091B100BE
:101AE00084608093B1008091B00081608093B000E9
:101AF00080917A00846080937A0080917A0082607D
:101B000080937A0080917A00816080937A0080913E
:101B10007A00806880937A001092C1001FB7F89411
:101B200080917D01811127C0E3E6F1E08491EFE42B
:101B3000F1E09491E82FF0E0EE0FFF1FE55CFE4F1F
:101B4000A591B491EC91E92321F461E08AE00E942F
:101B5000B40261E08AE00E94E4028CB580618CBD31
:101B60008CB580648CBD61E08DE00E94E40261E090
:101B70008BE00E94E40280917D018F5F80937D0164
:101B80001FBF80E180932E0260E18BE192E00E9412
:101B9000580560E0809132020E94B40261E08091B9
:101BA00032020E94E40260912E02686060932E026D
:101BB0008BE192E00E94580560912E026062609372
:101BC0002E028BE192E00E94580560912E026F7DFB
:101BD00060932E028BE192E00E94580560912E02E4
:101BE0006F7E60932E028BE192E00E945805609117
:101BF0002E02606460932E028BE192E00E945805F1
:101C000080912C0290912D020E94DB0380E00E94C3
:101C10008E0380931B020E948D0360912E026F7BC6
:101C200060932E028BE192E00E94580560912E0293
:101C3000606160932E028BE192E00E9458056091F2
:101C40002E02677F60932E028BE192E00E9458057E
:101C500010911B0280912A0290912B020E94DB03BB
:101C6000812F6AE00E94B31D182F692F83E292E052
:101C70000E94BC0A0E948E03612F8CE192E00E94B8
:101C8000BC0A0E948E030E948D0361E080913302A2
:101C90000E94B40260E0809133020E94B40246E8E0
:101CA000C42E44E0D42ED6018D919C910E941B0B32
:101CB000009194041091950420919604309197041A
:101CC000409190045091910460919204709193041A
:101CD000F601808191810E940A04F0909904D60156
:101CE0000D911D916D014091980464E0C8010E941E
:101CF000DE034F2D63E0C8010E94DE03BAE8CB1675
:101D0000B4E0DB0681F680918A0490918B040E94F6
:101D10001B0B0091F4041091F5042091F60430910E
:101D2000F7044091F0045091F1046091F204709135
:101D3000F30480918A0490918B040E940A0410910C
:101D40009904E0908A04F0908B044091980464E038
:101D5000C7010E94DE03412F63E0C7010E94DE033A
:101D6000E0918E01F0918F0182E08083E0918A0101
:101D7000F0918B011082E0918C01F0918D018FEC3C
:101D8000808310929601E0919201F091930186E098
:101D90008083E0919001F091910180818061808346
:101DA000E0919001F0919101808188608083E091C1
:101DB0009001F0919101808180688083E091900191
:101DC000F091910180818F7D808381E0809369050E
:101DD00080918C04882309F4E3C52BE9E22E24E0EA
:101DE000F22E36E8A32E34E0B32E0DE914E0C12C18
:101DF000D12C402FEDE9F4E04E1BD8018C918111DC
:101E000041C0D501ED91FC91858181110AC081E02D
:101E1000F7018083D501ED91FC918481882371F0D5
:101E200008C083854AA30E948B024AA1892BE9F04E
:101E3000EECF82850E948B02892B21F5F5018081EE
:101E400091810E94D904F601EB55FB4F60837183A9
:101E50008283938381E0D8018C9312968C93F50151
:101E6000808191810E94E60C0DC0D7018C9188235E
:101E700049F01C92F801108261E0D5018D919C918E
:101E80000E94B80B0F5F1F4FBFEFEB1AFB0AE2E097
:101E9000AE0EB11CF4E0CF0ED11C28E0C216D10466
:101EA00009F0A7CF80918D04882309F4DDC08091CB
:101EB0002A05811145C0E0918A04F0918B04858147
:101EC00081110BC081E080932905E0918A04F09193
:101ED0008B048481882361F006C083850E948B0275
:101EE000892BF1F0EFCF82850E948B02892B41F57F
:101EF00080918A0490918B040E94D90460932B05F1
:101F000070932C0580932D0590932E0581E080938E
:101F10002A0580918A0490918B040E94E60C10C0DF
:101F200080912905882361F01092290510922A05D5
:101F300040E060E080918A0490918B040E94B80B8D
:101F400080919D0410919B04882319F0111103C006
:101F5000F5C01111F3C080919E0400919C04882368
:101F600019F0011103C0EAC00111E8C080912A05EF
:101F700030902905882319F0311003C0DFC03110DB
:101F8000DDC080919A04882339F0111103C001113A
:101F900001C0311010929A0480919A0481114EC0B0
:101FA000C0902B05D0902C05E0902D05F0902E05CB
:101FB0008090A9049090AA04A090AB04B090AC04C7
:101FC0004090A5045090A6046090A7047090A804C7
:101FD0008EE50E94100B82E60E94100B8CE70E9497
:101FE000100B112331F041E0C301B2010E94120C29
:101FF00003C085E60E94100B8CE70E94100B0023A3
:1020000031F041E0C501B4010E94120C03C085E625
:102010000E94100B8CE70E94100B332031F041E03E
:10202000C701B6010E94120C03C085E60E94100B86
:1020300080E40E94100B8AE00E94100B80919B04A8
:1020400081110BC080919C04811107C080912905EA
:10205000811103C081E080939A0410929D04109234
:102060009E0410922A056AC080919D0410919B04E1
:10207000882319F0111103C061C011115FC0809154
:102080009E0400919C04882319F0011103C056C0DE
:10209000011154C080919A04882329F0111101C0C4
:1020A000011110929A0480919A04811138C0C09055
:1020B000A904D090AA04E090AB04F090AC04809006
:1020C000A5049090A604A090A704B090A8048EE563
:1020D0000E94100B84E70E94100B8CE70E94100BEB
:1020E000112331F041E0C501B4010E94120C03C07C
:1020F00085E60E94100B8CE70E94100B002331F044
:1021000041E0C701B6010E94120C03C085E60E949F
:10211000100B80E40E94100B8AE00E94100B80914B
:102120009B04811107C080919C04811103C081E050
:1021300080939A0410929D0410929E04B0908E0495
:10214000BB2009F4D6C38091E90481119BC0C090E3
:10215000E504D090E604E090E704F090E804809174
:10216000EC049091ED04A091EE04B091EF04C80E40
:10217000D91EEA1EFB1E0E942003C61AD70AE80ACF
:10218000F90A8091E5049091E604A091E704B091EA
:10219000E804C816D906EA06FB0608F073C081E019
:1021A0008093E904C090B504D090B604E090B704E1
:1021B000F090B8044090C1045090C2046090C304F1
:1021C0007090C4040AEE14E095EA892E94E0992EEA
:1021D000AA24A394D8018C9181112CC0A701960147
:1021E000F40160817181828193810E941C1BD40162
:1021F00087FF16C054962D913D914D915C91579754
:10220000C301B2010E94951CF401648B758B868B0F
:10221000978BA70196010E94A91D87FD0AC0D401D2
:102220005496CD92DD92ED92FC925797F801A082E0
:1022300001C0B12C0F5F1F4FF4E08F0E911C2DEAEF
:10224000821624E0920631F6B092E9044091E1044E
:102250005091E2046091E3047091E4048091EC04F5
:102260009091ED04A091EE04B091EF04840F951FBE
:10227000A61FB71F8093EC049093ED04A093EE0487
:10228000B093EF048FE292E098878F83A1EAB4E0E5
:10229000BE83AD838BE1282E82E0382EE3EAF4E0A2
:1022A000FF87EE8788E294E09C838B83A4E2B4E00E
:1022B000BA83A9833CA22BA2198A188A8889998992
:1022C000855E9D4FFC01E058FD4F2081222309F4DB
:1022D00054C27C01ACE7EA1AADEFFA0AF70180813B
:1022E000882309F425C20E9420036A877B878C8794
:1022F0009D87D7011C920E945809EBA1FCA1EB50CD
:10230000FE4FFF8FEE8F80819181A281B3818A84FD
:102310009B84AC84BD84881A990AAA0ABB0AEBA1E3
:10232000FCA1E750FE4F80829182A282B382EBA192
:10233000FCA1E151FE4F00811181EBA1FCA1ED5008
:10234000FE4F0190F081E02DD8012D913D914D91EE
:102350005C9160817181828193810E94941C6B01E8
:102360007C01EBA1FCA1EF5FFD4F60837183828351
:102370009383EBA1FCA1EB5FFD4FF9A3E8A32081C0
:10238000318142815381D8016D917D918D919C91D4
:102390000E94941C2B013C01EBA1FCA1E350FE4FD9
:1023A0006083718382839383C501B4010E94211BE2
:1023B0006A8B7B8B8C8B9D8BEBA1FCA1ED51FE4F2F
:1023C00020813181428153810E94821BA7019601A5
:1023D0000E94821BE981FA812081318142815381EF
:1023E0000E94951C4B015C01A981BA816D937D937C
:1023F0008D939C931397EBA1FCA1E25EFD4FB081FE
:10240000B987B11118C0EBA1FCA1E152FE4F2081A8
:10241000318142815381C301B2010E94821B9B0121
:10242000AC01C501B4010E94941CE981FA8160836A
:10243000718382839383A981BA818D919D910D903F
:10244000BC91A02D8E8B9F8BA88FB98FEBA1FCA187
:10245000E75EFD4F80809180A280B380A50194014A
:10246000BC01CD010E94A91D18163CF4E981FA8136
:1024700080829182A282B38220C0EBA1FCA1EB5E9C
:10248000FD4F80819181A281B3818A8F9B8FAC8F18
:10249000BD8F9C01AD016E897F89888D998D0E94C9
:1024A0001C1B87FF0AC08A8D9B8DAC8DBD8DE98179
:1024B000FA8180839183A283B383F985FF23A1F0FE
:1024C000A7019601EBA1FCA1E152FE4F6081718151
:1024D000828193810E94821BAB81BC816D937D932D
:1024E0008D939C93139706C0EB81FC81108211821F
:1024F000128213822A893B894C895D89EBA1FCA158
:10250000E951FE4F60817181828193810E94011D9A
:10251000A30192010E94821B9B01AC01A981BA8197
:102520006D917D918D919C910E94941CEB81FC8119
:1025300020813181428153810E94951C6B017C0175
:10254000AB81BC816D937D938D939C931397A50173
:1025500094010E94A91D18163CF4EB81FC81808235
:102560009182A282B38217C0EBA1FCA1EB5EFD4F6A
:1025700080809180A280B380A5019401C701B6013B
:102580000E941C1B87FF07C0AB81BC818D929D926E
:10259000AD92BC921397EBA1FCA1EF50FE4F2081AE
:1025A0003181EB81FC8180819181A281B381F9012C
:1025B00080839183A283B383F80180819181A2817A
:1025C000B381E8A1F9A180839183A283B3838A8533
:1025D0009B85AC85BD85EE8DFF8D80839183A28325
:1025E000B3837101FEE6EF1AFDEFFF0A20E030E051
:1025F000A901D7016D917D918D919C910E94A91D9A
:1026000018160CF08FC061E0EF81F88580810E9480
:10261000B402810106541D4FF80180819181A2818D
:10262000B3818A849B84AC84BD84881A990AAA0ADF
:10263000BB0A70978A859B85AC85BD858083918315
:10264000A283B383D7016C9011967C901197129658
:10265000CC90129713964C9020E030E0A901B30182
:102660008C2D942D0E941C1B87FD17C050900005D7
:10267000D0900105E0900205F0900305252D3D2D39
:10268000A701B3018C2D942D0E94A91D18164CF0A2
:10269000562CD72CEC2CF42C04C0512CD12CE12C32
:1026A000F12C2091000530910105409102055091D7
:1026B0000305652D7D2DC7010E94011D6B017C0165
:1026C000C501B4010E94211B9B01AC01C701B601E9
:1026D0000E94821B0E947A1DF101EE54FD4F60831F
:1026E00071838283938321E0ED81FE812083861AAA
:1026F000970AA80AB90AF1E18F169104A104B1045E
:1027000020F0AE85BF852C9303C0EE85FF85108237
:102710008A859B85AC85BD85F80180839183A283E2
:10272000B38306C060E0AF81B8858C910E94B4028B
:10273000ED81FE818081882349F1AE85BF858C9132
:10274000882321F10E942003F101E655FD4F00810D
:10275000118122813381DC01CB01801B910BA20B03
:10276000B30B389600811181228133818017910744
:10277000A207B30708F08CC109C060E0EF81F885BB
:1027800080810E94B402AD81BE811C92EF81F885E8
:102790003196F887EF838D819E8101969E838D838C
:1027A00094E0290E311CAE85BF851196BF87AE8798
:1027B000EBA1FCA1E45BFF4FFCA3EBA38B819C810D
:1027C000845B9F4F9C838B83A981BA81A45BBF4F9D
:1027D000BA83A983E889F989319729F081E090E0EB
:1027E000998B888B6BCD80915805882309F481C023
:1027F000C090DD04D090DE04E090DF04F090E004AF
:102800000E942003C61AD70AE80AF90AA0915B05BC
:10281000209143053091440540914505509146056E
:10282000B0E00E94431C6C157D058E059F05D0F01D
:1028300060912E02606860932E028BE192E00E940C
:10284000580560912E02626060932E028BE192E047
:102850000E94580580915B05815080935B05109222
:10286000570547C080915705811143C0C090DD04D2
:10287000D090DE04E090DF04F090E0040E9420039A
:10288000C61AD70AE80AF90AA0915B052091430508
:10289000309144054091450550914605B0E00E94B5
:1028A000431C00914B0510914C0520914D05309132
:1028B0004E05DC01CB01800F911FA21FB31F8C15A9
:1028C0009D05AE05BF05A8F08BE192E00E947F0553
:1028D0008BE192E00E94790581E080935705909109
:1028E0005B05911106C0809359051092580510920E
:1028F0005A0580915905882309F452C080915A05E0
:102900008111D0C0C0905305D0905405E09055057A
:10291000F09056058091DD049091DE04A091DF04D3
:10292000B091E004C80ED91EEA1EFB1E0E942003CF
:10293000C61AD70AE80AF90A8091530590915405FE
:10294000A0915505B09156058C159D05AE05BF05A6
:1029500008F4A8C060912E02606860932E028BE19B
:1029600092E00E94580560912E02626060932E02F0
:102970008BE192E00E94580560E08BE192E00E94BA
:10298000850581E080935A058EE50E94100B83E651
:102990000E94100B80E40E94100B8AE00E94100B32
:1029A00080918F04882309F470C0C0903E05D090B8
:1029B0003F05E0904005F09041050E942003C61AB3
:1029C000D70AE80AF90AA0913D052091380530910F
:1029D000390540913A0550913B05B0E00E94431CF7
:1029E0006C157D058E059F0588F060912E0260684C
:1029F00060932E028BE192E00E94580580913D0584
:102A0000815080933D0510923C053FC080913C056C
:102A100081113BC0C0903E05D0903F05E09040053D
:102A2000F09041050E942003C61AD70AE80AF90A65
:102A3000A0913D05209138053091390540913A0526
:102A400050913B05B0E00E94431C00913405109169
:102A500035052091360530913705DC01CB01800F1B
:102A6000911FA21FB31F8C159D05AE05BF0568F011
:102A70008BE192E00E947F0581E080933C0580918C
:102A80003D05811102C010928F040E945209A0C915
:102A900060E0AF81B8858C910E94B402ED81FE8127
:102AA000108274CE80915A05882309F479CFC090A2
:102AB0005305D0905405E0905505F090560580914F
:102AC000DD049091DE04A091DF04B091E004C80E13
:102AD000D91EEA1EFB1E0E942003C61AD70AE80A66
:102AE000F90A8091530590915405A0915505B09134
:102AF000560540914F0550915005609151057091D8
:102B00005205841B950BA60BB70B8C159D05AE05C6
:102B1000BF0508F445CF8BE192E00E947F058BE171
:102B200092E00E94790510925A051092590538CF0B
:102B30002F923F924F925F926F927F928F929F92CD
:102B4000AF92BF92CF92DF92EF92FF920F931F93BB
:102B5000CF93DF93CDB7DEB768970FB6F894DEBF9B
:102B60000FBECDBF109281011092800148EE53E05C
:102B700060E070E040938201509383016093840190
:102B80007093850189E391E090937F0180937E01AA
:102B900085EC90E090938B0180938A0184EC90E027
:102BA00090938D0180938C0180EC90E090938F0145
:102BB00080938E0181EC90E090939101809390013D
:102BC00082EC90E0909393018093920186EC90E0E8
:102BD000909395018093940110929701109298011F
:102BE0001092990110929A018CE7809360051092DF
:102BF000610583E0809362058093630581E08093A3
:102C0000640596E09093650580936605809367055B
:102C1000109268052AEE35E030938B0620938A06E1
:102C20002EEF35E030938D0620938C0622E136E0BE
:102C300030938F0620938E0626E236E0309391067D
:102C4000209390062AE336E0309393062093920671
:102C50002EE436E0309395062093940622E636E083
:102C6000309397062093960626E736E03093990630
:102C70002093980697E0E7E2F1E0ACE1B2E0019042
:102C80000D929A95E1F797E0EEE2F1E0A3E2B2E06F
:102C900001900D929A95E1F790E590932A02809326
:102CA0002B0220E720932C0280932D0287E0809353
:102CB000310228E02093320289E0809333020AEB4C
:102CC00011E0E0E6F5E0A4E3B2E001900D920150DE
:102CD0001040D9F7812C912C88ECA82E82ECB82ECC
:102CE0008092900490929104A0929204B0929304E6
:102CF000C12CD12C38E4E32E33E4F32EC09294049B
:102D0000D0929504E0929604F092970486EF809317
:102D100098049093990484EF91E0A0E0B0E0809350
:102D2000E1049093E204A093E304B093E404E0EAA6
:102D30004E2EE6E85E2E66246394712C4092E504E4
:102D40005092E6046092E7047092E8048092F004E6
:102D50009092F104A092F204B092F304C092F404B1
:102D6000D092F504E092F604F092F704C12CD12C35
:102D7000F0E8EF2EF0ECFF2EC092F804D092F904A8
:102D8000E092FA04F092FB04C12CD12C1AE7E12E58
:102D900013E4F12EC092FC04D092FD04E092FE04F4
:102DA000F092FF04C12CD12C08ECE02E02E4F02EAE
:102DB000C0920005D0920105E0920205F092030551
:102DC000C12CD12C30EAE32E30E4F32EC09205055D
:102DD000D0920605E0920705F092080510920905C9
:102DE00010920A0510920B0510920C05EDECCE2EF8
:102DF000ECECDE2EECE4EE2EEFE3FE2EC0920D05A1
:102E0000D0920E05E0920F05F0921005FAE9CF2E50
:102E1000F9E9DF2EED2CFEE3FF2EC0921105D092D2
:102E20001205E0921305F092140520932F050AEF86
:102E300010E020E030E0009330051093310520933E
:102E400032053093330500933405109335052093F4
:102E50003605309337058093380590933905A09354
:102E60003A05B0933B058AE08093420540934305C1
:102E700050934405609345057093460588EC90E0B7
:102E8000A0E0B0E08093470590934805A0934905E2
:102E9000B0934A0580E293E0A0E0B0E080934B0558
:102EA00090934C05A0934D05B0934E0580ED97E0AF
:102EB000A0E0B0E080934F0590935005A09351059A
:102EC000B093520580E49CE9A0E0B0E08093530504
:102ED00090935405A0935505B093560561E087E0A3
:102EE0000E94E40261E084E00E94E40261E089E083
:102EF0000E94E40260E083E10E94E40260E082E17B
:102F00000E94E4022FE531E03E872D8781E691E0C3
:102F1000988B8F87A3E6B1E0BA8BA98BE6E8F4E043
:102F2000FC8BEB8B25E631E03E8B2D8BABE12A2E23
:102F3000A2E03A2E80E394E09E838D83A4E3B4E084
:102F4000BC83AB83E4E2F4E0FA83E98381011C866D
:102F50001B86412C512CB0E86B2EBFE37B2E89E100
:102F600090E00E94E71D7C01AD85BE852D91BE8756
:102F7000AD87EF85F8894191F88BEF87A989BA89E8
:102F80006D91BA8BA98B0E947603EB89FC89E19243
:102F9000F192FC8BEB8BAD89BE898D91BE8BAD8B95
:102FA000EB85FC85E55EFD4F7F01848B61E00E942F
:102FB000E40260E0D70154968C910E94B4020E9412
:102FC0002003F801ED52FE4F4082518262827382EB
:102FD00034964082518262827382349610821182CA
:102FE00012821382349640825182628273823496B6
:102FF00040825182628273823496108211821282E0
:103000001382349611821082329611821082329687
:10301000910126573D4F318320833296F887EF8305
:10302000285F3F4F318320833296245F3F4F3183A7
:10303000208332966083718382839383AD81BE81C6
:103040001D921D921D921C92139780E090E0AFE7B5
:10305000B3E4EB81FC8180839183A283B3839801E5
:10306000235E3D4F388F2F8BD9011C92F801E25E11
:10307000FD4F10828090FC049090FD04A090FE040F
:10308000B090FF04C090F804D090F904E090FA04E6
:10309000F090FB04A5019401C701B6010E94A91D8F
:1030A00087FF6BC0ED81FE81C082D182E282F38214
:1030B000AB81BC818D929D92AD92BC921397EF89AA
:1030C000F88D8081882309F458C0AF81B8850D90B0
:1030D000BC91A02DB88FAF8B8D919D910D90BC911F
:1030E000A02D8F839887A987BA87A5019401BC0179
:1030F000CD010E94A91D18163CF4EF89F88D80823D
:103100009182A282B38211C0A70196016F81788556
:1031100089859A850E941C1B87FF07C0AF89B88DDF
:10312000CD92DD92ED92FC921397E981FA81808035
:103130009180A280B380AB81BC81CD90DD90ED9079
:10314000FC90A7019601C501B4010E94A91D1816A3
:1031500074F0AD81BE81CD90DD90ED90FC90A70123
:103160009601C501B4010E941C1B87FF06C0E981BE
:10317000FA81C082D182E282F382045B1F4FF4E0C5
:103180002F0E311C2D813E81245B3F4F3E832D83CA
:103190008B819C81845B9F4F9C838B83A981BA81A7
:1031A000A45BBF4FBA83A983EB85FC85319729F0D7
:1031B00021E030E03C872B87D2CE89E190E00E946D
:1031C000E71D8C0122E143E164E00E947603109345
:1031D0008B0400938A0410928C0410928D04109238
:1031E0008E0410928F0468960FB6F894DEBF0FBE5F
:1031F000CDBFDF91CF911F910F91FF90EF90DF90A6
:10320000CF90BF90AF909F908F907F906F905F9086
:103210004F903F902F900895662777270C949E1922
:10322000FC0188279927E89421912032E9F329307D
:1032300010F02E30C8F32B3241F02D3239F468945F
:1032400004C00E949619820F911D219120532A30AB
:10325000C0F31EF4909581959F4F08951F93FC0134
:1032600099278827BC01E89411911032E9F31930AD
:1032700010F01E30C8F31B3251F01D3249F468942F
:1032800006C00E948119610F711D811D911D119150
:1032900010531A30B0F33EF4909580957095619577
:1032A0007F4F8F4F9F4F1F9108954AE157E00E9433
:1032B0005A190895FA01A191B081009719F4109755
:1032C000E1F0CD01DC01CD010D90002011F4C00131
:1032D00013C0FB012191222319F02015D9F7F3CF58
:1032E000FB012191201519F41E92119606C022238C
:1032F000C1F70D900020A1F7D001FA01A193B0838E
:103300000895592F482F372F262F660F771F881FB4
:10331000991F660F771F881F991F620F731F841FE5
:10332000951F660F771F881F991F08957AE0979F52
:10333000902D879F802D910D11240895A0E0B0E07D
:10334000E4EAF9E10C94521CEC017B016115710572
:1033500019F0DB018D939C938E010F5F1F4F7880D6
:10336000872D90E00E94FB1A892B11F0E801F4CF21
:10337000BDE27B1205C00F5F1F4F7980C1E008C01E
:10338000EBE27E1204C08E010E5F1F4F7980C0E019
:103390006801F1E0CF1AD10843E050E060EE70E040
:1033A000C6010E94041B892BF1F4680122E0C20EC1
:1033B000D11C45E050E06BED70E0C6010E94041B9B
:1033C000892B21F4680187E0C80ED11CE114F104B7
:1033D00019F0D701CD92DC92C111FFC060E070E01E
:1033E00080E89FE703C143E050E068ED70E0C6016C
:1033F0000E94041B892B51F4E114F10409F4F2C07A
:103400000E5F1F4FF70111830083ECC0680160E07D
:1034100070E0CB0100E010E0F601D0EDD70DDA301E
:1034200058F52C2F2260622E2C2F2870C2FF05C069
:10343000211128C00F5F1F4F25C0222311F001501A
:103440001109A5E0B0E09B01AC010E94431C4B01B7
:103450005C01880C991CAA1CBB1CC501B4016D0F32
:10346000711D811D911D6839A9E97A078A07A9E1B3
:103470009A0740F0C66005C0DE3F51F4C3FD44C06A
:10348000C8606C2EBFEFCB1ADB0A7080C62DC4CF8C
:103490002D2F2F7D2531C1F540814D3211F4C061B2
:1034A00006C04B3221F0319621E030E006C0329662
:1034B000D60111964C9122E030E0A0EDA40FAA3085
:1034C00018F0E21BF30B20C040E050E04038BCE0B5
:1034D0005B075CF49A01220F331F220F331F420F48
:1034E000531F440F551F4A0F511D3196DF0111978D
:1034F0002C91A0EDA20FAA3048F3C4FF03C0519550
:1035000041955109040F151FC1FF07C0E114F104D3
:1035100021F03197D701ED93FC930E94211BC370DA
:10352000C33019F06B017C0106C06B017C01F7FA16
:10353000F094F7F8F09420E030E0A901C701B6015B
:103540000E941C1B882309F445C017FF06C0119573
:1035500001951109C7EFD0E002C0CFE0D1E05E01D4
:10356000B8E1AB1AB1084601BE2DAF2D90E2E92EAD
:10357000F12C0E151F0584F0FE0125913591459122
:103580005491B4018B2F9A2F0E94821B4B01B82FAC
:10359000A92F0E191F09EDCF2497F594E794CA15AA
:1035A000DB0539F76401EB2EFA2E8E2D880F8F2D57
:1035B000881F8F3F49F020E030E0A901C701B60124
:1035C0000E941C1B811106C082E290E090931D07AF
:1035D00080931C07C701B60109C060E070E080E875
:1035E0009FEF04C060E070E080EC9FE7CDB7DEB7EE
:1035F000EEE00C946E1C91110C94EF1B803219F0CC
:1036000089508550C8F70895FB01DC0141505040B6
:1036100088F08D9181341CF08B350CF4805E6591BF
:1036200061341CF06B350CF4605E861B611171F324
:10363000990B0895881BFCCF0E945E1B08F481E063
:103640000895E89409C097FB3EF490958095709595
:1036500061957F4F8F4F9F4F9923A9F0F92F96E9DE
:10366000BB279395F695879577956795B795F11153
:10367000F8CFFAF4BB0F11F460FF1BC06F5F7F4FF0
:103680008F4F9F4F16C0882311F096E911C0772302
:1036900021F09EE8872F762F05C0662371F096E80B
:1036A000862F70E060E02AF09A95660F771F881FDA
:1036B000DAF7880F9695879597F90895990F00087E
:1036C000550FAA0BE0E8FEEF16161706E807F907F4
:1036D000C0F012161306E407F50798F0621B730B8F
:1036E000840B950B39F40A2661F0232B242B252B10
:1036F00021F408950A2609F4A140A6958FEF811DB3
:10370000811D08950E94951B0C94091C0E94FB1BAF
:1037100038F00E94021C20F0952311F00C94F21B4B
:103720000C94F81B11240C943D1C0E941A1C70F37D
:10373000959FC1F3950F50E0551F629FF001729F56
:10374000BB27F00DB11D639FAA27F00DB11DAA1F65
:10375000649F6627B00DA11D661F829F2227B00DB2
:10376000A11D621F739FB00DA11D621F839FA00D3D
:10377000611D221F749F3327A00D611D231F849F8D
:10378000600D211D822F762F6A2F11249F575040E4
:103790009AF0F1F088234AF0EE0FFF1FBB1F661F5F
:1037A000771F881F91505040A9F79E3F510580F028
:1037B0000C94F21B0C943D1C5F3FE4F3983ED4F351
:1037C000869577956795B795F795E7959F5FC1F7CC
:1037D000FE2B880F911D9695879597F90895992747
:1037E0008827089597F99F6780E870E060E0089562
:1037F0009FEF80EC089500240A9416161706180609
:103800000906089500240A941216130614060506E4
:103810000895092E0394000C11F4882352F0BB0F75
:1038200040F4BF2B11F460FF04C06F5F7F4F8F4FD8
:103830009F4F089557FD9058440F551F59F05F3F13
:1038400071F04795880F97FB991F61F09F3F79F0C2
:1038500087950895121613061406551FF2CF469544
:10386000F1DF08C0161617061806991FF1CF8695C6
:103870007105610508940895E894BB2766277727AA
:10388000CB0197F908950E94851CA59F900DB49FC8
:10389000900DA49F800D911D112408952F923F92A9
:1038A0004F925F926F927F928F929F92AF92BF9250
:1038B000CF92DF92EF92FF920F931F93CF93DF93FC
:1038C000CDB7DEB7CA1BDB0B0FB6F894DEBF0FBE59
:1038D000CDBF09942A88398848885F846E847D84A6
:1038E0008C849B84AA84B984C884DF80EE80FD80A8
:1038F0000C811B81AA81B981CE0FD11D0FB6F8941E
:10390000DEBF0FBECDBFED010895A29FB001B39FF2
:10391000C001A39F700D811D1124911DB29F700DD8
:10392000811D1124911D08955058BB27AA270E947C
:10393000AC1C0C94091C0E94FB1B38F00E94021C5A
:1039400020F039F49F3F19F426F40C94F81B0EF480
:10395000E095E7FB0C94F21BE92F0E941A1C58F328
:10396000BA17620773078407950720F079F4A6F564
:103970000C943C1C0EF4E0950B2EBA2FA02D0B01DD
:10398000B90190010C01CA01A0011124FF27591BA4
:1039900099F0593F50F4503E68F11A16F040A22FAA
:1039A000232F342F4427585FF3CF4695379527951B
:1039B000A795F0405395C9F77EF41F16BA0B620B1A
:1039C000730B840BBAF09150A1F0FF0FBB1F661F61
:1039D000771F881FC2F70EC0BA0F621F731F841FA4
:1039E00048F4879577956795B795F7959E3F08F0CA
:1039F000B0CF9395880F08F09927EE0F979587958C
:103A000008950E94151D0C94091C0E94021C58F078
:103A10000E94FB1B40F029F45F3F29F00C94F21B3D
:103A200051110C943D1C0C94F81B0E941A1C68F355
:103A30009923B1F3552391F3951B550BBB27AA2767
:103A400062177307840738F09F5F5F4F220F331FA1
:103A5000441FAA1FA9F335D00E2E3AF0E0E832D069
:103A600091505040E695001CCAF72BD0FE2F29D06C
:103A7000660F771F881FBB1F261737074807AB073E
:103A8000B0E809F0BB0B802DBF01FF2793585F4FB3
:103A90003AF09E3F510578F00C94F21B0C943D1CBB
:103AA0005F3FE4F3983ED4F3869577956795B79595
:103AB000F7959F5FC9F7880F911D9695879597F9A0
:103AC0000895E1E0660F771F881FBB1F6217730719
:103AD0008407BA0720F0621B730B840BBA0BEE1F2E
:103AE00088F7E09508950E947A1D6894B1110C94AE
:103AF0003D1C08950E94221C88F09F5798F0B92F12
:103B00009927B751B0F0E1F0660F771F881F991F12
:103B10001AF0BA95C9F714C0B13091F00E943C1C5C
:103B2000B1E008950C943C1C672F782F8827B85F6C
:103B300039F0B93FCCF3869577956795B395D9F76A
:103B40003EF490958095709561957F4F8F4F9F4F74
:103B500008950E945E1B08F48FEF08950E945E1B7B
:103B6000880B990B0895991B79E004C0991F96174B
:103B700008F0961B881F7A95C9F780950895A1E2F1
:103B80001A2EAA1BBB1BFD010DC0AA1FBB1FEE1FD7
:103B9000FF1FA217B307E407F50720F0A21BB30B22
:103BA000E40BF50B661F771F881F991F1A9469F79E
:103BB00060957095809590959B01AC01BD01CF01FA
:103BC0000895EE0FFF1F0590F491E02D0994CF9317
:103BD000DF938230910510F482E090E0E0912007BD
:103BE000F091210720E030E0C0E0D0E0309711F103
:103BF0004081518148175907C0F04817590761F4AF
:103C000082819381209719F09B838A832BC09093A4
:103C100021078093200726C02115310519F042178E
:103C2000530718F49A01BE01DF01EF010280F3810E
:103C3000E02DDCCF2115310509F1281B390B24308B
:103C4000310590F412968D919C9113976115710531
:103C500021F0FB019383828304C09093210780931A
:103C60002007FD01329644C0FD01E20FF31F81934E
:103C70009193225031092D933C933AC020911E0715
:103C800030911F07232B41F4209102013091030151
:103C900030931F0720931E072091000130910101EE
:103CA0002115310541F42DB73EB7409104015091E3
:103CB0000501241B350BE0911E07F0911F07E21749
:103CC000F307A0F42E1B3F0B2817390778F0AC013F
:103CD0004E5F5F4F2417350748F04E0F5F1F50931C
:103CE0001F0740931E078193919302C0E0E0F0E02C
:103CF000CF01DF91CF9108950F931F93CF93DF935F
:103D0000009709F48CC0FC01329713821282009153
:103D10002007109121070115110581F420813181BF
:103D2000820F931F20911E0730911F072817390714
:103D300079F5F0931F07E0931E0771C0D80140E0AA
:103D400050E0AE17BF0750F412962D913C91139797
:103D5000AD012115310509F1D901F3CF9D01DA013A
:103D60003383228360817181860F971F82179307A7
:103D700069F4EC0128813981260F371F2E5F3F4FF0
:103D8000318320838A819B8193838283452B29F40D
:103D9000F0932107E093200742C01396FC93EE9323
:103DA0001297ED01499159919E01240F351FE21799
:103DB000F30771F480819181840F951F029611960B
:103DC0009C938E938281938113969C938E931297EA
:103DD000E0E0F0E0D80112968D919C911397009746
:103DE00019F0F8018C01F6CF8D919C9198012E5F0E
:103DF0003F4F820F931F20911E0730911F072817F6
:103E0000390769F4309729F410922107109220079E
:103E100002C01382128210931F0700931E07DF91C6
:103E2000CF911F910F91089581E090E0F8940C9448
:103E30003A1FFC018191861721F08823D9F7992731
:103E400008953197CF010895FB01DC0101900D9297
:103E50000020E1F70895FB01DC014150504048F09B
:103E600001900D920020C9F701C01D9241505040B1
:103E7000E0F7089510E0C8EBD0E004C0FE010E9416
:0E3E8000E11D2196C93BD107C9F7F894FFCF89
:103E8E00000022078000100020000000300000001B
:103E9E00000000004000070701070707070203079D
:103EAE000704070707050640080210042080400497
:103EBE000810200280000000007A01E3001201C108
:103ECE000143012101350150F6000048430000C8AE
:103EDE00C2000048430000C8C21213040908070EAE
:103EEE00100F11020306056E616E00696E66006F9B
:043EFE0076660000E4
:00000001FF
